{
  "contractName": "Profiles",
  "abi": [
    {
      "anonymous": false,
      "inputs": [
        {
          "components": [
            {
              "internalType": "uint256",
              "name": "amount",
              "type": "uint256"
            },
            {
              "internalType": "uint256",
              "name": "earnClick",
              "type": "uint256"
            },
            {
              "internalType": "bool",
              "name": "exists",
              "type": "bool"
            }
          ],
          "indexed": false,
          "internalType": "struct Profiles.Profile",
          "name": "profile",
          "type": "tuple"
        }
      ],
      "name": "NewProfile",
      "type": "event"
    },
    {
      "inputs": [
        {
          "internalType": "address",
          "name": "",
          "type": "address"
        }
      ],
      "name": "profileMap",
      "outputs": [
        {
          "internalType": "uint256",
          "name": "amount",
          "type": "uint256"
        },
        {
          "internalType": "uint256",
          "name": "earnClick",
          "type": "uint256"
        },
        {
          "internalType": "bool",
          "name": "exists",
          "type": "bool"
        }
      ],
      "stateMutability": "view",
      "type": "function",
      "constant": true
    },
    {
      "inputs": [],
      "name": "createProfile",
      "outputs": [],
      "stateMutability": "nonpayable",
      "type": "function"
    },
    {
      "inputs": [
        {
          "internalType": "uint256",
          "name": "_amount",
          "type": "uint256"
        }
      ],
      "name": "addAmount",
      "outputs": [],
      "stateMutability": "nonpayable",
      "type": "function"
    },
    {
      "inputs": [],
      "name": "checkProfile",
      "outputs": [
        {
          "internalType": "bool",
          "name": "",
          "type": "bool"
        }
      ],
      "stateMutability": "view",
      "type": "function",
      "constant": true
    }
  ],
  "bytecode": "0x608060405234801561001057600080fd5b506107eb806100206000396000f3fe608060405234801561001057600080fd5b506004361061004b5760003560e01c8062547664146100505780630912f2321461005a5780636229ffe81461007657806393484c8714610094575b600080fd5b6100586100c6565b005b610074600480360381019061006f91906103c0565b6101e2565b005b61007e6102f8565b60405161008b9190610408565b60405180910390f35b6100ae60048036038101906100a99190610481565b61034e565b6040516100bd939291906104bd565b60405180910390f35b6100ce6102f8565b1561010e576040517f08c379a000000000000000000000000000000000000000000000000000000000815260040161010590610551565b60405180910390fd5b600060405180606001604052806000815260200160018152602001600115158152509050806000803373ffffffffffffffffffffffffffffffffffffffff1673ffffffffffffffffffffffffffffffffffffffff168152602001908152602001600020600082015181600001556020820151816001015560408201518160020160006101000a81548160ff0219169083151502179055509050507f6703cbd8a789b2036c731411462445a95916b80900a118b4c5e338c4634c9e45816040516101d791906105d1565b60405180910390a150565b6101ea6102f8565b610229576040517f08c379a000000000000000000000000000000000000000000000000000000000815260040161022090610638565b60405180910390fd5b806000803373ffffffffffffffffffffffffffffffffffffffff1673ffffffffffffffffffffffffffffffffffffffff168152602001908152602001600020600001600082825461027a9190610687565b925050819055507f6703cbd8a789b2036c731411462445a95916b80900a118b4c5e338c4634c9e456000803373ffffffffffffffffffffffffffffffffffffffff1673ffffffffffffffffffffffffffffffffffffffff1681526020019081526020016000206040516102ed919061079a565b60405180910390a150565b60008060003373ffffffffffffffffffffffffffffffffffffffff1673ffffffffffffffffffffffffffffffffffffffff16815260200190815260200160002060020160009054906101000a900460ff16905090565b60006020528060005260406000206000915090508060000154908060010154908060020160009054906101000a900460ff16905083565b600080fd5b6000819050919050565b61039d8161038a565b81146103a857600080fd5b50565b6000813590506103ba81610394565b92915050565b6000602082840312156103d6576103d5610385565b5b60006103e4848285016103ab565b91505092915050565b60008115159050919050565b610402816103ed565b82525050565b600060208201905061041d60008301846103f9565b92915050565b600073ffffffffffffffffffffffffffffffffffffffff82169050919050565b600061044e82610423565b9050919050565b61045e81610443565b811461046957600080fd5b50565b60008135905061047b81610455565b92915050565b60006020828403121561049757610496610385565b5b60006104a58482850161046c565b91505092915050565b6104b78161038a565b82525050565b60006060820190506104d260008301866104ae565b6104df60208301856104ae565b6104ec60408301846103f9565b949350505050565b600082825260208201905092915050565b7f54686520757365722068617320616c726561647920612070726f66696c652e00600082015250565b600061053b601f836104f4565b915061054682610505565b602082019050919050565b6000602082019050818103600083015261056a8161052e565b9050919050565b61057a8161038a565b82525050565b610589816103ed565b82525050565b6060820160008201516105a56000850182610571565b5060208201516105b86020850182610571565b5060408201516105cb6040850182610580565b50505050565b60006060820190506105e6600083018461058f565b92915050565b7f546865207573657220646f65736e27742065786973742e000000000000000000600082015250565b60006106226017836104f4565b915061062d826105ec565b602082019050919050565b6000602082019050818103600083015261065181610615565b9050919050565b7f4e487b7100000000000000000000000000000000000000000000000000000000600052601160045260246000fd5b60006106928261038a565b915061069d8361038a565b9250827fffffffffffffffffffffffffffffffffffffffffffffffffffffffffffffffff038211156106d2576106d1610658565b5b828201905092915050565b60008160001c9050919050565b6000819050919050565b6000610707610702836106dd565b6106ea565b9050919050565b600060ff82169050919050565b600061072e610729836106dd565b61070e565b9050919050565b60608201600080830154905061074a816106f4565b6107576000860182610571565b5060018301549050610768816106f4565b6107756020860182610571565b50600283015490506107868161071b565b6107936040860182610580565b5050505050565b60006060820190506107af6000830184610735565b9291505056fea2646970667358221220bcd3f7ff0f188d1b80b4ed34ac3300424cf4e9fe10463af75645eadac446d58564736f6c634300080b0033",
  "immutableReferences": {},
  "source": "// SPDX-License-Identifier: UNLICENSED\n\npragma solidity ^0.8.0;\n\n// import \"@openzeppelin/contracts/utils/math/SafeMath.sol\";\n\ncontract Profiles {\n\n    struct Profile {\n        uint256 amount;\n        uint256 earnClick;\n        bool exists;\n    }\n\n    mapping (address => Profile) public profileMap;\n\n    event NewProfile(Profile profile);\n\n    function createProfile() external {\n        require(!checkProfile(), \"The user has already a profile.\");\n        Profile memory profile = Profile(0, 1, true);\n        profileMap[msg.sender] = profile;\n        emit NewProfile(profile);\n    }\n\n    function addAmount(uint256 _amount) external {\n        require(checkProfile(), \"The user doesn't exist.\");\n        profileMap[msg.sender].amount += _amount;\n        emit NewProfile(profileMap[msg.sender]);\n    }\n\n    function checkProfile() public view returns(bool){\n        return profileMap[msg.sender].exists;\n    }\n\n}\n",
  "sourcePath": "/home/zaille/Bureau/Crypto-Clicker/Crypto-Clicker/smart_contract/contracts/Profiles.sol",
  "compiler": {
    "name": "solc",
    "version": "0.8.11+commit.d7f03943.Emscripten.clang"
  },
  "schemaVersion": "3.4.5",
  "updatedAt": "2022-03-28T23:22:36.345Z",
  "networkType": "ethereum",
  "devdoc": {
    "kind": "dev",
    "methods": {},
    "version": 1
  },
  "userdoc": {
    "kind": "user",
    "methods": {},
    "version": 1
  }
}