{
  "contractName": "Profiles",
  "abi": [
    {
      "anonymous": false,
      "inputs": [
        {
          "components": [
            {
              "internalType": "uint256",
              "name": "amount",
              "type": "uint256"
            },
            {
              "internalType": "uint256",
              "name": "earnClick",
              "type": "uint256"
            },
            {
              "internalType": "bool",
              "name": "exists",
              "type": "bool"
            }
          ],
          "indexed": false,
          "internalType": "struct Profiles.Profile",
          "name": "profile",
          "type": "tuple"
        }
      ],
      "name": "NewProfile",
      "type": "event"
    },
    {
      "inputs": [
        {
          "internalType": "address",
          "name": "",
          "type": "address"
        }
      ],
      "name": "profileMap",
      "outputs": [
        {
          "internalType": "uint256",
          "name": "amount",
          "type": "uint256"
        },
        {
          "internalType": "uint256",
          "name": "earnClick",
          "type": "uint256"
        },
        {
          "internalType": "bool",
          "name": "exists",
          "type": "bool"
        }
      ],
      "stateMutability": "view",
      "type": "function",
      "constant": true
    },
    {
      "inputs": [],
      "name": "createProfile",
      "outputs": [],
      "stateMutability": "nonpayable",
      "type": "function"
    },
    {
      "inputs": [],
      "name": "checkProfile",
      "outputs": [
        {
          "internalType": "bool",
          "name": "",
          "type": "bool"
        }
      ],
      "stateMutability": "view",
      "type": "function",
      "constant": true
    },
    {
      "inputs": [],
      "name": "click",
      "outputs": [],
      "stateMutability": "nonpayable",
      "type": "function"
    }
  ],
  "bytecode": "0x608060405234801561001057600080fd5b506107c0806100206000396000f3fe608060405234801561001057600080fd5b506004361061004b5760003560e01c8062547664146100505780636229ffe81461005a5780637d55923d1461007857806393484c8714610082575b600080fd5b6100586100b4565b005b6100626101d0565b60405161006f91906103ce565b60405180910390f35b610080610226565b005b61009c6004803603810190610097919061044c565b61037c565b6040516100ab93929190610492565b60405180910390f35b6100bc6101d0565b156100fc576040517f08c379a00000000000000000000000000000000000000000000000000000000081526004016100f390610526565b60405180910390fd5b600060405180606001604052806000815260200160018152602001600115158152509050806000803373ffffffffffffffffffffffffffffffffffffffff1673ffffffffffffffffffffffffffffffffffffffff168152602001908152602001600020600082015181600001556020820151816001015560408201518160020160006101000a81548160ff0219169083151502179055509050507f6703cbd8a789b2036c731411462445a95916b80900a118b4c5e338c4634c9e45816040516101c591906105a6565b60405180910390a150565b60008060003373ffffffffffffffffffffffffffffffffffffffff1673ffffffffffffffffffffffffffffffffffffffff16815260200190815260200160002060020160009054906101000a900460ff16905090565b61022e6101d0565b61026d576040517f08c379a00000000000000000000000000000000000000000000000000000000081526004016102649061060d565b60405180910390fd5b6000803373ffffffffffffffffffffffffffffffffffffffff1673ffffffffffffffffffffffffffffffffffffffff168152602001908152602001600020600101546000803373ffffffffffffffffffffffffffffffffffffffff1673ffffffffffffffffffffffffffffffffffffffff16815260200190815260200160002060000160008282546102ff919061065c565b925050819055507f6703cbd8a789b2036c731411462445a95916b80900a118b4c5e338c4634c9e456000803373ffffffffffffffffffffffffffffffffffffffff1673ffffffffffffffffffffffffffffffffffffffff168152602001908152602001600020604051610372919061076f565b60405180910390a1565b60006020528060005260406000206000915090508060000154908060010154908060020160009054906101000a900460ff16905083565b60008115159050919050565b6103c8816103b3565b82525050565b60006020820190506103e360008301846103bf565b92915050565b600080fd5b600073ffffffffffffffffffffffffffffffffffffffff82169050919050565b6000610419826103ee565b9050919050565b6104298161040e565b811461043457600080fd5b50565b60008135905061044681610420565b92915050565b600060208284031215610462576104616103e9565b5b600061047084828501610437565b91505092915050565b6000819050919050565b61048c81610479565b82525050565b60006060820190506104a76000830186610483565b6104b46020830185610483565b6104c160408301846103bf565b949350505050565b600082825260208201905092915050565b7f54686520757365722068617320616c726561647920612070726f66696c652e00600082015250565b6000610510601f836104c9565b915061051b826104da565b602082019050919050565b6000602082019050818103600083015261053f81610503565b9050919050565b61054f81610479565b82525050565b61055e816103b3565b82525050565b60608201600082015161057a6000850182610546565b50602082015161058d6020850182610546565b5060408201516105a06040850182610555565b50505050565b60006060820190506105bb6000830184610564565b92915050565b7f546865207573657220646f65736e27742065786973742e000000000000000000600082015250565b60006105f76017836104c9565b9150610602826105c1565b602082019050919050565b60006020820190508181036000830152610626816105ea565b9050919050565b7f4e487b7100000000000000000000000000000000000000000000000000000000600052601160045260246000fd5b600061066782610479565b915061067283610479565b9250827fffffffffffffffffffffffffffffffffffffffffffffffffffffffffffffffff038211156106a7576106a661062d565b5b828201905092915050565b60008160001c9050919050565b6000819050919050565b60006106dc6106d7836106b2565b6106bf565b9050919050565b600060ff82169050919050565b60006107036106fe836106b2565b6106e3565b9050919050565b60608201600080830154905061071f816106c9565b61072c6000860182610546565b506001830154905061073d816106c9565b61074a6020860182610546565b506002830154905061075b816106f0565b6107686040860182610555565b5050505050565b6000606082019050610784600083018461070a565b9291505056fea26469706673582212200510ad207627d84cbdad60dc881aba26e277bf7a3fe9749916f6401dc1194a8064736f6c634300080b0033",
  "immutableReferences": {},
  "source": "// SPDX-License-Identifier: UNLICENSED\n\npragma solidity ^0.8.0;\n\n// import \"@openzeppelin/contracts/utils/math/SafeMath.sol\";\n\ncontract Profiles {\n\n    struct Profile {\n        uint256 amount;\n        uint256 earnClick;\n        bool exists;\n    }\n\n    mapping (address => Profile) public profileMap;\n\n    event NewProfile(Profile profile);\n\n    function createProfile() external {\n        require(!checkProfile(), \"The user has already a profile.\");\n        Profile memory profile = Profile(0, 1, true);\n        profileMap[msg.sender] = profile;\n        emit NewProfile(profile);\n    }\n\n    function checkProfile() public view returns(bool){\n        return profileMap[msg.sender].exists;\n    }\n\n    function click() public {\n        require(checkProfile(), \"The user doesn't exist.\");\n        profileMap[msg.sender].amount += profileMap[msg.sender].earnClick;\n        emit NewProfile(profileMap[msg.sender]);\n    }\n\n}\n",
  "sourcePath": "/home/zaille/Bureau/Crypto-Clicker/Crypto-Clicker/smart_contract/contracts/Profiles.sol",
  "compiler": {
    "name": "solc",
    "version": "0.8.11+commit.d7f03943.Emscripten.clang"
  },
  "schemaVersion": "3.4.5",
  "updatedAt": "2022-03-28T00:58:39.143Z",
  "networkType": "ethereum",
  "devdoc": {
    "kind": "dev",
    "methods": {},
    "version": 1
  },
  "userdoc": {
    "kind": "user",
    "methods": {},
    "version": 1
  }
}